:020000040800F2
:1000000000500020930100089101000891010008B0
:100010009101000891010008910100080000000012
:100020000000000000000000000000009101000836
:1000300091010008000000009101000891010008F2
:100040009101000891010008910100089101000848
:100050009101000891010008910100089101000838
:100060009101000891010008910100089101000828
:100070009101000891010008910100089101000818
:100080009101000891010008910100089101000808
:1000900091010008910100089101000891010008F8
:1000A00091010008910100089101000891010008E8
:1000B00091010008910100089101000891010008D8
:1000C00091010008910100089101000891010008C8
:1000D00091010008910100089101000891010008B8
:1000E00091010008910100089101000891010008A8
:1000F0009101000891010008910100089101000898
:100100009101000891010008910100089101000887
:100110009101000891010008910100089101000877
:100120009101000891010008910100089101000867
:10013000412C00000061656162690001220000003D
:1001400005372D4D00060A074D090212041401154A
:10015000011703180119011A011E042201412C0084
:100160000000616561626900012200000005372D11
:100170004D00060A074D0902120414011501170368
:10018000180119011A011E04220100207047000005
:10019000FEE7002110B50D4B0D4A0E48D21A9142D0
:1001A00009D1002210460C4B0C49C91A8A4208D1C9
:1001B000FFF7EBFFFEE710F8014B013103F8014BAD
:1001C000EDE703F8010B0132F0E700BF000000206B
:1001D00001000020E00100080400002008000020C9
:0401E0000A00000011
:04000005080001935B
:00000001FF
